{
  "contractName": "Evote",
  "abi": [
    {
      "inputs": [],
      "stateMutability": "nonpayable",
      "type": "constructor"
    },
    {
      "anonymous": false,
      "inputs": [
        {
          "indexed": false,
          "internalType": "string",
          "name": "accountAddress",
          "type": "string"
        },
        {
          "indexed": false,
          "internalType": "string",
          "name": "email",
          "type": "string"
        }
      ],
      "name": "aadharCreated",
      "type": "event"
    },
    {
      "anonymous": false,
      "inputs": [
        {
          "indexed": false,
          "internalType": "uint256",
          "name": "id",
          "type": "uint256"
        },
        {
          "indexed": false,
          "internalType": "string",
          "name": "name",
          "type": "string"
        },
        {
          "indexed": false,
          "internalType": "string",
          "name": "age",
          "type": "string"
        },
        {
          "indexed": false,
          "internalType": "string",
          "name": "party",
          "type": "string"
        },
        {
          "indexed": false,
          "internalType": "string",
          "name": "qualification",
          "type": "string"
        },
        {
          "indexed": false,
          "internalType": "uint256",
          "name": "voteCount",
          "type": "uint256"
        }
      ],
      "name": "candidatesCreated",
      "type": "event"
    },
    {
      "anonymous": false,
      "inputs": [
        {
          "indexed": false,
          "internalType": "string",
          "name": "accountAddress",
          "type": "string"
        },
        {
          "indexed": false,
          "internalType": "string",
          "name": "aadhar",
          "type": "string"
        }
      ],
      "name": "emailCreated",
      "type": "event"
    },
    {
      "anonymous": false,
      "inputs": [
        {
          "indexed": false,
          "internalType": "string",
          "name": "username",
          "type": "string"
        },
        {
          "indexed": false,
          "internalType": "string",
          "name": "email",
          "type": "string"
        },
        {
          "indexed": false,
          "internalType": "string",
          "name": "password",
          "type": "string"
        },
        {
          "indexed": false,
          "internalType": "bool",
          "name": "isVoted",
          "type": "bool"
        },
        {
          "indexed": false,
          "internalType": "string",
          "name": "aadhar",
          "type": "string"
        },
        {
          "indexed": false,
          "internalType": "bool",
          "name": "isAdmin",
          "type": "bool"
        }
      ],
      "name": "userCreated",
      "type": "event"
    },
    {
      "inputs": [
        {
          "internalType": "string",
          "name": "",
          "type": "string"
        }
      ],
      "name": "aadharList",
      "outputs": [
        {
          "internalType": "string",
          "name": "accountAddress",
          "type": "string"
        },
        {
          "internalType": "string",
          "name": "email",
          "type": "string"
        }
      ],
      "stateMutability": "view",
      "type": "function"
    },
    {
      "inputs": [],
      "name": "candidatesCount",
      "outputs": [
        {
          "internalType": "uint256",
          "name": "",
          "type": "uint256"
        }
      ],
      "stateMutability": "view",
      "type": "function"
    },
    {
      "inputs": [
        {
          "internalType": "uint256",
          "name": "",
          "type": "uint256"
        }
      ],
      "name": "candidatesList",
      "outputs": [
        {
          "internalType": "uint256",
          "name": "id",
          "type": "uint256"
        },
        {
          "internalType": "string",
          "name": "name",
          "type": "string"
        },
        {
          "internalType": "string",
          "name": "age",
          "type": "string"
        },
        {
          "internalType": "string",
          "name": "party",
          "type": "string"
        },
        {
          "internalType": "string",
          "name": "qualification",
          "type": "string"
        },
        {
          "internalType": "uint256",
          "name": "voteCount",
          "type": "uint256"
        }
      ],
      "stateMutability": "view",
      "type": "function"
    },
    {
      "inputs": [],
      "name": "changeState",
      "outputs": [
        {
          "internalType": "string",
          "name": "",
          "type": "string"
        }
      ],
      "stateMutability": "view",
      "type": "function"
    },
    {
      "inputs": [
        {
          "internalType": "string",
          "name": "",
          "type": "string"
        }
      ],
      "name": "emailList",
      "outputs": [
        {
          "internalType": "string",
          "name": "accountAddress",
          "type": "string"
        },
        {
          "internalType": "string",
          "name": "aadhar",
          "type": "string"
        }
      ],
      "stateMutability": "view",
      "type": "function"
    },
    {
      "inputs": [],
      "name": "info",
      "outputs": [
        {
          "internalType": "string",
          "name": "",
          "type": "string"
        }
      ],
      "stateMutability": "view",
      "type": "function"
    },
    {
      "inputs": [],
      "name": "userCount",
      "outputs": [
        {
          "internalType": "uint256",
          "name": "",
          "type": "uint256"
        }
      ],
      "stateMutability": "view",
      "type": "function"
    },
    {
      "inputs": [
        {
          "internalType": "string",
          "name": "",
          "type": "string"
        }
      ],
      "name": "usersList",
      "outputs": [
        {
          "internalType": "string",
          "name": "username",
          "type": "string"
        },
        {
          "internalType": "string",
          "name": "email",
          "type": "string"
        },
        {
          "internalType": "string",
          "name": "password",
          "type": "string"
        },
        {
          "internalType": "bool",
          "name": "isVoted",
          "type": "bool"
        },
        {
          "internalType": "string",
          "name": "aadhar",
          "type": "string"
        },
        {
          "internalType": "bool",
          "name": "isAdmin",
          "type": "bool"
        }
      ],
      "stateMutability": "view",
      "type": "function"
    },
    {
      "inputs": [
        {
          "internalType": "string",
          "name": "_username",
          "type": "string"
        },
        {
          "internalType": "string",
          "name": "_email",
          "type": "string"
        },
        {
          "internalType": "string",
          "name": "_password",
          "type": "string"
        },
        {
          "internalType": "string",
          "name": "_aadhar",
          "type": "string"
        }
      ],
      "name": "createUser",
      "outputs": [],
      "stateMutability": "nonpayable",
      "type": "function"
    },
    {
      "inputs": [
        {
          "internalType": "string",
          "name": "_name",
          "type": "string"
        },
        {
          "internalType": "string",
          "name": "_age",
          "type": "string"
        },
        {
          "internalType": "string",
          "name": "_party",
          "type": "string"
        },
        {
          "internalType": "string",
          "name": "_qualification",
          "type": "string"
        }
      ],
      "name": "createCandidate",
      "outputs": [],
      "stateMutability": "nonpayable",
      "type": "function"
    },
    {
      "inputs": [
        {
          "internalType": "string",
          "name": "_info",
          "type": "string"
        }
      ],
      "name": "createNotice",
      "outputs": [],
      "stateMutability": "nonpayable",
      "type": "function"
    },
    {
      "inputs": [
        {
          "internalType": "uint256",
          "name": "id",
          "type": "uint256"
        },
        {
          "internalType": "string",
          "name": "_email",
          "type": "string"
        }
      ],
      "name": "addVote",
      "outputs": [],
      "stateMutability": "nonpayable",
      "type": "function"
    },
    {
      "inputs": [
        {
          "internalType": "string",
          "name": "_name",
          "type": "string"
        }
      ],
      "name": "changeStates",
      "outputs": [],
      "stateMutability": "nonpayable",
      "type": "function"
    },
    {
      "inputs": [
        {
          "internalType": "string",
          "name": "_email",
          "type": "string"
        }
      ],
      "name": "appendIsVote",
      "outputs": [],
      "stateMutability": "nonpayable",
      "type": "function"
    },
    {
      "inputs": [
        {
          "internalType": "string",
          "name": "_aadharNum",
          "type": "string"
        },
        {
          "internalType": "string",
          "name": "_accountAddress",
          "type": "string"
        },
        {
          "internalType": "string",
          "name": "_email",
          "type": "string"
        }
      ],
      "name": "createAdharEmail",
      "outputs": [],
      "stateMutability": "nonpayable",
      "type": "function"
    }
  ],
  "bytecode": "0x608060405260008055600060015560405180602001604052806000815250600290805190602001906200003492919062000071565b503480156200004257600080fd5b5060405180602001604052806000815250600390805190602001906200006a92919062000071565b5062000186565b8280546200007f9062000150565b90600052602060002090601f016020900481019282620000a35760008555620000ef565b82601f10620000be57805160ff1916838001178555620000ef565b82800160010185558215620000ef579182015b82811115620000ee578251825591602001919060010190620000d1565b5b509050620000fe919062000102565b5090565b5b808211156200011d57600081600090555060010162000103565b5090565b7f4e487b7100000000000000000000000000000000000000000000000000000000600052602260045260246000fd5b600060028204905060018216806200016957607f821691505b6020821081141562000180576200017f62000121565b5b50919050565b6118c580620001966000396000f3fe608060405234801561001057600080fd5b50600436106100f55760003560e01c80634cbce6ac116100975780638412e667116100665780638412e667146102775780638fb7ec6514610295578063df2d5ec7146102b1578063f9edfa0d146102e6576100f5565b80634cbce6ac146101ee5780636f7fcddb1461022357806378c4c4881461023f5780638224aa931461025b576100f5565b80630fcaac1b116100d35780630fcaac1b1461017a5780632d35a8a2146101965780633541a13d146101b4578063370158ea146101d0576100f5565b806301a8445b146100fa57806307973ccf1461012b5780630f9181e114610149575b600080fd5b610114600480360381019061010f91906111fb565b610302565b6040516101229291906112cc565b60405180910390f35b61013361044c565b604051610140919061131c565b60405180910390f35b610163600480360381019061015e91906111fb565b610452565b6040516101719291906112cc565b60405180910390f35b610194600480360381019061018f9190611363565b61059c565b005b61019e610606565b6040516101ab919061131c565b60405180910390f35b6101ce60048036038101906101c991906113bf565b61060c565b005b6101d86106f0565b6040516101e59190611466565b60405180910390f35b610208600480360381019061020391906111fb565b61077e565b60405161021a969594939291906114a3565b60405180910390f35b61023d60048036038101906102389190611520565b610a0a565b005b610259600480360381019061025491906111fb565b610b73565b005b610275600480360381019061027091906111fb565b610bb0565b005b61027f610bca565b60405161028c9190611466565b60405180910390f35b6102af60048036038101906102aa9190611520565b610c58565b005b6102cb60048036038101906102c691906115f7565b610d88565b6040516102dd96959493929190611624565b60405180910390f35b61030060048036038101906102fb91906111fb565b610fe4565b005b60068180516020810182018051848252602083016020850120818352809550505050505060009150905080600001805461033b906116d0565b80601f0160208091040260200160405190810160405280929190818152602001828054610367906116d0565b80156103b45780601f10610389576101008083540402835291602001916103b4565b820191906000526020600020905b81548152906001019060200180831161039757829003601f168201915b5050505050908060010180546103c9906116d0565b80601f01602080910402602001604051908101604052809291908181526020018280546103f5906116d0565b80156104425780601f1061041757610100808354040283529160200191610442565b820191906000526020600020905b81548152906001019060200180831161042557829003601f168201915b5050505050905082565b60015481565b60058180516020810182018051848252602083016020850120818352809550505050505060009150905080600001805461048b906116d0565b80601f01602080910402602001604051908101604052809291908181526020018280546104b7906116d0565b80156105045780601f106104d957610100808354040283529160200191610504565b820191906000526020600020905b8154815290600101906020018083116104e757829003601f168201915b505050505090806001018054610519906116d0565b80601f0160208091040260200160405190810160405280929190818152602001828054610545906116d0565b80156105925780601f1061056757610100808354040283529160200191610592565b820191906000526020600020905b81548152906001019060200180831161057557829003601f168201915b5050505050905082565b6004600083815260200190815260200160002060050160008154809291906105c390611731565b919050555060016007826040516105da91906117b6565b908152602001604051809103902060030160006101000a81548160ff0219169083151502179055505050565b60005481565b60405180604001604052808381526020018281525060068460405161063191906117b6565b9081526020016040518091039020600082015181600001908051906020019061065b929190610ffe565b506020820151816001019080519060200190610678929190610ffe565b509050508260078260405161068d91906117b6565b908152602001604051809103902060040190805190602001906106b1929190610ffe565b507f67a61a7d93b3f5c541318aa6f015f8879eb4975e7a1c7534d29451d68d7468d882826040516106e39291906112cc565b60405180910390a1505050565b600380546106fd906116d0565b80601f0160208091040260200160405190810160405280929190818152602001828054610729906116d0565b80156107765780601f1061074b57610100808354040283529160200191610776565b820191906000526020600020905b81548152906001019060200180831161075957829003601f168201915b505050505081565b6007818051602081018201805184825260208301602085012081835280955050505050506000915090508060000180546107b7906116d0565b80601f01602080910402602001604051908101604052809291908181526020018280546107e3906116d0565b80156108305780601f1061080557610100808354040283529160200191610830565b820191906000526020600020905b81548152906001019060200180831161081357829003601f168201915b505050505090806001018054610845906116d0565b80601f0160208091040260200160405190810160405280929190818152602001828054610871906116d0565b80156108be5780601f10610893576101008083540402835291602001916108be565b820191906000526020600020905b8154815290600101906020018083116108a157829003601f168201915b5050505050908060020180546108d3906116d0565b80601f01602080910402602001604051908101604052809291908181526020018280546108ff906116d0565b801561094c5780601f106109215761010080835404028352916020019161094c565b820191906000526020600020905b81548152906001019060200180831161092f57829003601f168201915b5050505050908060030160009054906101000a900460ff1690806004018054610974906116d0565b80601f01602080910402602001604051908101604052809291908181526020018280546109a0906116d0565b80156109ed5780601f106109c2576101008083540402835291602001916109ed565b820191906000526020600020905b8154815290600101906020018083116109d057829003601f168201915b5050505050908060050160009054906101000a900460ff16905086565b60016000815480929190610a1d90611731565b91905055506040518060c0016040528085815260200184815260200183815260200160001515815260200182815260200160011515815250600784604051610a6591906117b6565b90815260200160405180910390206000820151816000019080519060200190610a8f929190610ffe565b506020820151816001019080519060200190610aac929190610ffe565b506040820151816002019080519060200190610ac9929190610ffe565b5060608201518160030160006101000a81548160ff0219169083151502179055506080820151816004019080519060200190610b06929190610ffe565b5060a08201518160050160006101000a81548160ff0219169083151502179055509050507f20700df0952a8eff0e03a51e8e2af9c5cfe41723ad993114d91dbe047703675d8484846000856001604051610b65969594939291906114a3565b60405180910390a150505050565b6001600782604051610b8591906117b6565b908152602001604051809103902060030160006101000a81548160ff02191690831515021790555050565b8060039080519060200190610bc6929190610ffe565b5050565b60028054610bd7906116d0565b80601f0160208091040260200160405190810160405280929190818152602001828054610c03906116d0565b8015610c505780601f10610c2557610100808354040283529160200191610c50565b820191906000526020600020905b815481529060010190602001808311610c3357829003601f168201915b505050505081565b600080815480929190610c6a90611731565b91905055506040518060c00160405280600054815260200185815260200184815260200183815260200182815260200160008152506004600080548152602001908152602001600020600082015181600001556020820151816001019080519060200190610cd9929190610ffe565b506040820151816002019080519060200190610cf6929190610ffe565b506060820151816003019080519060200190610d13929190610ffe565b506080820151816004019080519060200190610d30929190610ffe565b5060a082015181600501559050507f4ef8a94ac0a5bc18bb327ca4c6fc41a39510862b179a676672623d241a0d2e20600054858585856000604051610d7a96959493929190611812565b60405180910390a150505050565b6004602052806000526040600020600091509050806000015490806001018054610db1906116d0565b80601f0160208091040260200160405190810160405280929190818152602001828054610ddd906116d0565b8015610e2a5780601f10610dff57610100808354040283529160200191610e2a565b820191906000526020600020905b815481529060010190602001808311610e0d57829003601f168201915b505050505090806002018054610e3f906116d0565b80601f0160208091040260200160405190810160405280929190818152602001828054610e6b906116d0565b8015610eb85780601f10610e8d57610100808354040283529160200191610eb8565b820191906000526020600020905b815481529060010190602001808311610e9b57829003601f168201915b505050505090806003018054610ecd906116d0565b80601f0160208091040260200160405190810160405280929190818152602001828054610ef9906116d0565b8015610f465780601f10610f1b57610100808354040283529160200191610f46565b820191906000526020600020905b815481529060010190602001808311610f2957829003601f168201915b505050505090806004018054610f5b906116d0565b80601f0160208091040260200160405190810160405280929190818152602001828054610f87906116d0565b8015610fd45780601f10610fa957610100808354040283529160200191610fd4565b820191906000526020600020905b815481529060010190602001808311610fb757829003601f168201915b5050505050908060050154905086565b8060029080519060200190610ffa929190610ffe565b5050565b82805461100a906116d0565b90600052602060002090601f01602090048101928261102c5760008555611073565b82601f1061104557805160ff1916838001178555611073565b82800160010185558215611073579182015b82811115611072578251825591602001919060010190611057565b5b5090506110809190611084565b5090565b5b8082111561109d576000816000905550600101611085565b5090565b6000604051905090565b600080fd5b600080fd5b600080fd5b600080fd5b6000601f19601f8301169050919050565b7f4e487b7100000000000000000000000000000000000000000000000000000000600052604160045260246000fd5b611108826110bf565b810181811067ffffffffffffffff82111715611127576111266110d0565b5b80604052505050565b600061113a6110a1565b905061114682826110ff565b919050565b600067ffffffffffffffff821115611166576111656110d0565b5b61116f826110bf565b9050602081019050919050565b82818337600083830152505050565b600061119e6111998461114b565b611130565b9050828152602081018484840111156111ba576111b96110ba565b5b6111c584828561117c565b509392505050565b600082601f8301126111e2576111e16110b5565b5b81356111f284826020860161118b565b91505092915050565b600060208284031215611211576112106110ab565b5b600082013567ffffffffffffffff81111561122f5761122e6110b0565b5b61123b848285016111cd565b91505092915050565b600081519050919050565b600082825260208201905092915050565b60005b8381101561127e578082015181840152602081019050611263565b8381111561128d576000848401525b50505050565b600061129e82611244565b6112a8818561124f565b93506112b8818560208601611260565b6112c1816110bf565b840191505092915050565b600060408201905081810360008301526112e68185611293565b905081810360208301526112fa8184611293565b90509392505050565b6000819050919050565b61131681611303565b82525050565b6000602082019050611331600083018461130d565b92915050565b61134081611303565b811461134b57600080fd5b50565b60008135905061135d81611337565b92915050565b6000806040838503121561137a576113796110ab565b5b60006113888582860161134e565b925050602083013567ffffffffffffffff8111156113a9576113a86110b0565b5b6113b5858286016111cd565b9150509250929050565b6000806000606084860312156113d8576113d76110ab565b5b600084013567ffffffffffffffff8111156113f6576113f56110b0565b5b611402868287016111cd565b935050602084013567ffffffffffffffff811115611423576114226110b0565b5b61142f868287016111cd565b925050604084013567ffffffffffffffff8111156114505761144f6110b0565b5b61145c868287016111cd565b9150509250925092565b600060208201905081810360008301526114808184611293565b905092915050565b60008115159050919050565b61149d81611488565b82525050565b600060c08201905081810360008301526114bd8189611293565b905081810360208301526114d18188611293565b905081810360408301526114e58187611293565b90506114f46060830186611494565b81810360808301526115068185611293565b905061151560a0830184611494565b979650505050505050565b6000806000806080858703121561153a576115396110ab565b5b600085013567ffffffffffffffff811115611558576115576110b0565b5b611564878288016111cd565b945050602085013567ffffffffffffffff811115611585576115846110b0565b5b611591878288016111cd565b935050604085013567ffffffffffffffff8111156115b2576115b16110b0565b5b6115be878288016111cd565b925050606085013567ffffffffffffffff8111156115df576115de6110b0565b5b6115eb878288016111cd565b91505092959194509250565b60006020828403121561160d5761160c6110ab565b5b600061161b8482850161134e565b91505092915050565b600060c082019050611639600083018961130d565b818103602083015261164b8188611293565b9050818103604083015261165f8187611293565b905081810360608301526116738186611293565b905081810360808301526116878185611293565b905061169660a083018461130d565b979650505050505050565b7f4e487b7100000000000000000000000000000000000000000000000000000000600052602260045260246000fd5b600060028204905060018216806116e857607f821691505b602082108114156116fc576116fb6116a1565b5b50919050565b7f4e487b7100000000000000000000000000000000000000000000000000000000600052601160045260246000fd5b600061173c82611303565b91507fffffffffffffffffffffffffffffffffffffffffffffffffffffffffffffffff82141561176f5761176e611702565b5b600182019050919050565b600081905092915050565b600061179082611244565b61179a818561177a565b93506117aa818560208601611260565b80840191505092915050565b60006117c28284611785565b915081905092915050565b6000819050919050565b6000819050919050565b60006117fc6117f76117f2846117cd565b6117d7565b611303565b9050919050565b61180c816117e1565b82525050565b600060c082019050611827600083018961130d565b81810360208301526118398188611293565b9050818103604083015261184d8187611293565b905081810360608301526118618186611293565b905081810360808301526118758185611293565b905061188460a0830184611803565b97965050505050505056fea26469706673582212209df1207d4726e87f902a28efbdbe743976df23ef153bc542c599d3951f514d0a64736f6c634300080c0033",
  "immutableReferences": {},
  "source": "// SPDX-License-Identifier: MIT\npragma solidity >=0.4.22 <0.9.0;\ncontract Evote{\n    uint public candidatesCount=0;\n    uint public userCount=0;\n    string public changeState=\"\";\n    string public info;\n mapping(uint => candidates) public candidatesList;\n mapping(string => email) public emailList;\n mapping(string => aadhar) public aadharList;\n mapping(string => user) public usersList;\n\n    constructor() {\n        info = \"\";\n    }\n\n struct user{\n      string username;\n      string email;\n      string password;\n      bool isVoted;\n      string aadhar;\n      bool isAdmin;\n      \n  }\n struct email{\n      string accountAddress;\n      string aadhar;\n  }\n struct aadhar{\n      string accountAddress;\n      string email;\n  }\n \n  struct candidates{\n      uint id;\n      string name;\n      string age;\n      string party;\n      string qualification;\n      uint voteCount;\n  }\n  // events\n\n   event userCreated(\n      string username,\n      string email,\n      string password,\n      bool isVoted,\n      string aadhar,\n      bool isAdmin\n      \n    );\n\n   event emailCreated(\n      string accountAddress,\n      string aadhar\n    );\n   event aadharCreated(\n      string accountAddress,\n      string email\n    );\n   event candidatesCreated(\n      uint id,\n      string name,\n      string age,\n      string party,\n      string qualification,\n      uint voteCount\n    );\n\n   \n    function createUser(string memory _username,string memory _email,string memory _password,string memory _aadhar ) public {\n      \n        userCount++;\n\n        usersList[_email] = user(_username,_email,_password,false,_aadhar,true);\n      \n        emit userCreated(_username,_email,_password,false,_aadhar,true);\n    }\n\n  function createCandidate(string memory _name,string memory _age,string memory _party,string memory _qualification) public {\n      \n        candidatesCount++;\n       \n        candidatesList[candidatesCount] = candidates(candidatesCount,_name,_age,_party,_qualification,0);\n      \n        emit candidatesCreated(candidatesCount,_name,_age,_party,_qualification,0);\n    }\n  \n  function createNotice(string memory _info) public{\n        info = _info;\n  }\n\n  // function getNotice() public view return (string memory){\n  //   return info;\n  // }\n\n  function addVote(uint id,string memory _email) public {\n        \n        candidatesList[id].voteCount++;\n        usersList[_email].isVoted=true;\n      \n    }\n  function changeStates(string memory _name) public {\n\n        changeState=_name;\n    }\n\n    function appendIsVote(string memory _email) public {\n\n         usersList[_email].isVoted=true;\n    }\n\n  function createAdharEmail(string memory _aadharNum, string memory _accountAddress,string memory _email) public {\n        aadharList[_aadharNum] = aadhar(_accountAddress,_email);\n\n        usersList[_email].aadhar=_aadharNum;\n\n        emit aadharCreated(_accountAddress, _email);\n  }\n  \n\n}",
  "sourcePath": "/Users/flower/Desktop/dapp/vote/src/contracts/Evote.sol",
  "compiler": {
    "name": "solc",
    "version": "0.8.12+commit.f00d7308.Emscripten.clang"
  },
  "schemaVersion": "3.4.13",
  "updatedAt": "2023-04-10T02:45:20.079Z",
  "devdoc": {
    "kind": "dev",
    "methods": {},
    "version": 1
  },
  "userdoc": {
    "kind": "user",
    "methods": {},
    "version": 1
  }
}