{
  "contractName": "Evote",
  "abi": [
    {
      "inputs": [],
      "stateMutability": "nonpayable",
      "type": "constructor"
    },
    {
      "anonymous": false,
      "inputs": [
        {
          "indexed": false,
          "internalType": "string",
          "name": "accountAddress",
          "type": "string"
        },
        {
          "indexed": false,
          "internalType": "string",
          "name": "email",
          "type": "string"
        }
      ],
      "name": "aadharCreated",
      "type": "event"
    },
    {
      "anonymous": false,
      "inputs": [
        {
          "indexed": false,
          "internalType": "uint256",
          "name": "id",
          "type": "uint256"
        },
        {
          "indexed": false,
          "internalType": "string",
          "name": "name",
          "type": "string"
        },
        {
          "indexed": false,
          "internalType": "string",
          "name": "age",
          "type": "string"
        },
        {
          "indexed": false,
          "internalType": "string",
          "name": "party",
          "type": "string"
        },
        {
          "indexed": false,
          "internalType": "string",
          "name": "qualification",
          "type": "string"
        },
        {
          "indexed": false,
          "internalType": "uint256",
          "name": "voteCount",
          "type": "uint256"
        }
      ],
      "name": "candidatesCreated",
      "type": "event"
    },
    {
      "anonymous": false,
      "inputs": [
        {
          "indexed": false,
          "internalType": "string",
          "name": "accountAddress",
          "type": "string"
        },
        {
          "indexed": false,
          "internalType": "string",
          "name": "aadhar",
          "type": "string"
        }
      ],
      "name": "emailCreated",
      "type": "event"
    },
    {
      "anonymous": false,
      "inputs": [
        {
          "indexed": false,
          "internalType": "string",
          "name": "username",
          "type": "string"
        },
        {
          "indexed": false,
          "internalType": "string",
          "name": "email",
          "type": "string"
        },
        {
          "indexed": false,
          "internalType": "string",
          "name": "password",
          "type": "string"
        },
        {
          "indexed": false,
          "internalType": "bool",
          "name": "isVoted",
          "type": "bool"
        },
        {
          "indexed": false,
          "internalType": "string",
          "name": "aadhar",
          "type": "string"
        },
        {
          "indexed": false,
          "internalType": "bool",
          "name": "isAdmin",
          "type": "bool"
        },
        {
          "indexed": false,
          "internalType": "bool",
          "name": "isKey",
          "type": "bool"
        }
      ],
      "name": "userCreated",
      "type": "event"
    },
    {
      "inputs": [
        {
          "internalType": "string",
          "name": "",
          "type": "string"
        }
      ],
      "name": "aadharList",
      "outputs": [
        {
          "internalType": "string",
          "name": "accountAddress",
          "type": "string"
        },
        {
          "internalType": "string",
          "name": "email",
          "type": "string"
        }
      ],
      "stateMutability": "view",
      "type": "function"
    },
    {
      "inputs": [],
      "name": "candidatesCount",
      "outputs": [
        {
          "internalType": "uint256",
          "name": "",
          "type": "uint256"
        }
      ],
      "stateMutability": "view",
      "type": "function"
    },
    {
      "inputs": [
        {
          "internalType": "uint256",
          "name": "",
          "type": "uint256"
        }
      ],
      "name": "candidatesList",
      "outputs": [
        {
          "internalType": "uint256",
          "name": "id",
          "type": "uint256"
        },
        {
          "internalType": "string",
          "name": "name",
          "type": "string"
        },
        {
          "internalType": "string",
          "name": "age",
          "type": "string"
        },
        {
          "internalType": "string",
          "name": "party",
          "type": "string"
        },
        {
          "internalType": "string",
          "name": "qualification",
          "type": "string"
        },
        {
          "internalType": "uint256",
          "name": "voteCount",
          "type": "uint256"
        }
      ],
      "stateMutability": "view",
      "type": "function"
    },
    {
      "inputs": [],
      "name": "changeState",
      "outputs": [
        {
          "internalType": "string",
          "name": "",
          "type": "string"
        }
      ],
      "stateMutability": "view",
      "type": "function"
    },
    {
      "inputs": [
        {
          "internalType": "string",
          "name": "",
          "type": "string"
        }
      ],
      "name": "emailList",
      "outputs": [
        {
          "internalType": "string",
          "name": "accountAddress",
          "type": "string"
        },
        {
          "internalType": "string",
          "name": "aadhar",
          "type": "string"
        }
      ],
      "stateMutability": "view",
      "type": "function"
    },
    {
      "inputs": [],
      "name": "info",
      "outputs": [
        {
          "internalType": "string",
          "name": "",
          "type": "string"
        }
      ],
      "stateMutability": "view",
      "type": "function"
    },
    {
      "inputs": [],
      "name": "keyCount",
      "outputs": [
        {
          "internalType": "uint256",
          "name": "",
          "type": "uint256"
        }
      ],
      "stateMutability": "view",
      "type": "function"
    },
    {
      "inputs": [],
      "name": "salt",
      "outputs": [
        {
          "internalType": "uint256",
          "name": "",
          "type": "uint256"
        }
      ],
      "stateMutability": "view",
      "type": "function"
    },
    {
      "inputs": [],
      "name": "userCount",
      "outputs": [
        {
          "internalType": "uint256",
          "name": "",
          "type": "uint256"
        }
      ],
      "stateMutability": "view",
      "type": "function"
    },
    {
      "inputs": [],
      "name": "userKey",
      "outputs": [
        {
          "internalType": "uint256",
          "name": "",
          "type": "uint256"
        }
      ],
      "stateMutability": "view",
      "type": "function"
    },
    {
      "inputs": [
        {
          "internalType": "string",
          "name": "",
          "type": "string"
        }
      ],
      "name": "usersList",
      "outputs": [
        {
          "internalType": "string",
          "name": "username",
          "type": "string"
        },
        {
          "internalType": "string",
          "name": "email",
          "type": "string"
        },
        {
          "internalType": "string",
          "name": "password",
          "type": "string"
        },
        {
          "internalType": "bool",
          "name": "isVoted",
          "type": "bool"
        },
        {
          "internalType": "string",
          "name": "aadhar",
          "type": "string"
        },
        {
          "internalType": "bool",
          "name": "isAdmin",
          "type": "bool"
        },
        {
          "internalType": "bool",
          "name": "isKey",
          "type": "bool"
        }
      ],
      "stateMutability": "view",
      "type": "function"
    },
    {
      "inputs": [
        {
          "internalType": "string",
          "name": "_username",
          "type": "string"
        },
        {
          "internalType": "string",
          "name": "_email",
          "type": "string"
        },
        {
          "internalType": "string",
          "name": "_password",
          "type": "string"
        },
        {
          "internalType": "string",
          "name": "_aadhar",
          "type": "string"
        }
      ],
      "name": "createUser",
      "outputs": [],
      "stateMutability": "nonpayable",
      "type": "function"
    },
    {
      "inputs": [
        {
          "internalType": "string",
          "name": "_name",
          "type": "string"
        },
        {
          "internalType": "string",
          "name": "_age",
          "type": "string"
        },
        {
          "internalType": "string",
          "name": "_party",
          "type": "string"
        },
        {
          "internalType": "string",
          "name": "_qualification",
          "type": "string"
        }
      ],
      "name": "createCandidate",
      "outputs": [],
      "stateMutability": "nonpayable",
      "type": "function"
    },
    {
      "inputs": [
        {
          "internalType": "string",
          "name": "_info",
          "type": "string"
        }
      ],
      "name": "createNotice",
      "outputs": [],
      "stateMutability": "nonpayable",
      "type": "function"
    },
    {
      "inputs": [
        {
          "internalType": "uint256",
          "name": "id",
          "type": "uint256"
        },
        {
          "internalType": "string",
          "name": "_email",
          "type": "string"
        }
      ],
      "name": "addVote",
      "outputs": [],
      "stateMutability": "nonpayable",
      "type": "function"
    },
    {
      "inputs": [
        {
          "internalType": "string",
          "name": "_name",
          "type": "string"
        }
      ],
      "name": "changeStates",
      "outputs": [],
      "stateMutability": "nonpayable",
      "type": "function"
    },
    {
      "inputs": [
        {
          "internalType": "string",
          "name": "_email",
          "type": "string"
        }
      ],
      "name": "appendIsVote",
      "outputs": [],
      "stateMutability": "nonpayable",
      "type": "function"
    },
    {
      "inputs": [
        {
          "internalType": "string",
          "name": "_aadharNum",
          "type": "string"
        },
        {
          "internalType": "string",
          "name": "_accountAddress",
          "type": "string"
        },
        {
          "internalType": "string",
          "name": "_email",
          "type": "string"
        }
      ],
      "name": "createAdharEmail",
      "outputs": [],
      "stateMutability": "nonpayable",
      "type": "function"
    },
    {
      "inputs": [],
      "name": "generateKey",
      "outputs": [],
      "stateMutability": "nonpayable",
      "type": "function"
    }
  ],
  "bytecode": "0x608060405260008055607b60015560006002556000600355600060045560405180602001604052806000815250600590805190602001906200004392919062000080565b503480156200005157600080fd5b5060405180602001604052806000815250600690805190602001906200007992919062000080565b5062000195565b8280546200008e906200015f565b90600052602060002090601f016020900481019282620000b25760008555620000fe565b82601f10620000cd57805160ff1916838001178555620000fe565b82800160010185558215620000fe579182015b82811115620000fd578251825591602001919060010190620000e0565b5b5090506200010d919062000111565b5090565b5b808211156200012c57600081600090555060010162000112565b5090565b7f4e487b7100000000000000000000000000000000000000000000000000000000600052602260045260246000fd5b600060028204905060018216806200017857607f821691505b602082108114156200018f576200018e62000130565b5b50919050565b611a5280620001a56000396000f3fe608060405234801561001057600080fd5b50600436106101215760003560e01c80636f7fcddb116100ad578063922dd7d911610071578063922dd7d9146102fc578063bfa0b13314610306578063df2d5ec714610324578063f9edfa0d14610359578063fac750e01461037557610121565b80636f7fcddb1461026e57806378c4c4881461028a5780638224aa93146102a65780638412e667146102c25780638fb7ec65146102e057610121565b80631c1c2289116100f45780631c1c2289146101c25780632d35a8a2146101e05780633541a13d146101fe578063370158ea1461021a5780634cbce6ac1461023857610121565b806301a8445b1461012657806307973ccf146101575780630f9181e1146101755780630fcaac1b146101a6575b600080fd5b610140600480360381019061013b919061132d565b610393565b60405161014e9291906113fe565b60405180910390f35b61015f6104dd565b60405161016c919061144e565b60405180910390f35b61018f600480360381019061018a919061132d565b6104e3565b60405161019d9291906113fe565b60405180910390f35b6101c060048036038101906101bb9190611495565b61062d565b005b6101ca610697565b6040516101d7919061144e565b60405180910390f35b6101e861069d565b6040516101f5919061144e565b60405180910390f35b610218600480360381019061021391906114f1565b6106a3565b005b610222610787565b60405161022f9190611598565b60405180910390f35b610252600480360381019061024d919061132d565b610815565b60405161026597969594939291906115d5565b60405180910390f35b61028860048036038101906102839190611660565b610ab4565b005b6102a4600480360381019061029f919061132d565b610c49565b005b6102c060048036038101906102bb919061132d565b610c86565b005b6102ca610ca0565b6040516102d79190611598565b60405180910390f35b6102fa60048036038101906102f59190611660565b610d2e565b005b610304610e60565b005b61030e610eae565b60405161031b919061144e565b60405180910390f35b61033e60048036038101906103399190611737565b610eb4565b60405161035096959493929190611764565b60405180910390f35b610373600480360381019061036e919061132d565b611110565b005b61037d61112a565b60405161038a919061144e565b60405180910390f35b6009818051602081018201805184825260208301602085012081835280955050505050506000915090508060000180546103cc90611810565b80601f01602080910402602001604051908101604052809291908181526020018280546103f890611810565b80156104455780601f1061041a57610100808354040283529160200191610445565b820191906000526020600020905b81548152906001019060200180831161042857829003601f168201915b50505050509080600101805461045a90611810565b80601f016020809104026020016040519081016040528092919081815260200182805461048690611810565b80156104d35780601f106104a8576101008083540402835291602001916104d3565b820191906000526020600020905b8154815290600101906020018083116104b657829003601f168201915b5050505050905082565b60045481565b60088180516020810182018051848252602083016020850120818352809550505050505060009150905080600001805461051c90611810565b80601f016020809104026020016040519081016040528092919081815260200182805461054890611810565b80156105955780601f1061056a57610100808354040283529160200191610595565b820191906000526020600020905b81548152906001019060200180831161057857829003601f168201915b5050505050908060010180546105aa90611810565b80601f01602080910402602001604051908101604052809291908181526020018280546105d690611810565b80156106235780601f106105f857610100808354040283529160200191610623565b820191906000526020600020905b81548152906001019060200180831161060657829003601f168201915b5050505050905082565b60076000838152602001908152602001600020600501600081548092919061065490611871565b91905055506001600a8260405161066b91906118f6565b908152602001604051809103902060030160006101000a81548160ff0219169083151502179055505050565b60005481565b60025481565b6040518060400160405280838152602001828152506009846040516106c891906118f6565b908152602001604051809103902060008201518160000190805190602001906106f2929190611130565b50602082015181600101908051906020019061070f929190611130565b5090505082600a8260405161072491906118f6565b90815260200160405180910390206004019080519060200190610748929190611130565b507f67a61a7d93b3f5c541318aa6f015f8879eb4975e7a1c7534d29451d68d7468d8828260405161077a9291906113fe565b60405180910390a1505050565b6006805461079490611810565b80601f01602080910402602001604051908101604052809291908181526020018280546107c090611810565b801561080d5780601f106107e25761010080835404028352916020019161080d565b820191906000526020600020905b8154815290600101906020018083116107f057829003601f168201915b505050505081565b600a8180516020810182018051848252602083016020850120818352809550505050505060009150905080600001805461084e90611810565b80601f016020809104026020016040519081016040528092919081815260200182805461087a90611810565b80156108c75780601f1061089c576101008083540402835291602001916108c7565b820191906000526020600020905b8154815290600101906020018083116108aa57829003601f168201915b5050505050908060010180546108dc90611810565b80601f016020809104026020016040519081016040528092919081815260200182805461090890611810565b80156109555780601f1061092a57610100808354040283529160200191610955565b820191906000526020600020905b81548152906001019060200180831161093857829003601f168201915b50505050509080600201805461096a90611810565b80601f016020809104026020016040519081016040528092919081815260200182805461099690611810565b80156109e35780601f106109b8576101008083540402835291602001916109e3565b820191906000526020600020905b8154815290600101906020018083116109c657829003601f168201915b5050505050908060030160009054906101000a900460ff1690806004018054610a0b90611810565b80601f0160208091040260200160405190810160405280929190818152602001828054610a3790611810565b8015610a845780601f10610a5957610100808354040283529160200191610a84565b820191906000526020600020905b815481529060010190602001808311610a6757829003601f168201915b5050505050908060050160009054906101000a900460ff16908060050160019054906101000a900460ff16905087565b60046000815480929190610ac790611871565b91905055506040518060e0016040528085815260200184815260200183815260200160001515815260200182815260200160011515815260200160001515815250600a84604051610b1891906118f6565b90815260200160405180910390206000820151816000019080519060200190610b42929190611130565b506020820151816001019080519060200190610b5f929190611130565b506040820151816002019080519060200190610b7c929190611130565b5060608201518160030160006101000a81548160ff0219169083151502179055506080820151816004019080519060200190610bb9929190611130565b5060a08201518160050160006101000a81548160ff02191690831515021790555060c08201518160050160016101000a81548160ff0219169083151502179055509050507f94eccfb8f94cc8ece94f671bd9c72a8292f69ed14e2742d5e6dd2d15e5c7ad2084848460008560016000604051610c3b97969594939291906115d5565b60405180910390a150505050565b6001600a82604051610c5b91906118f6565b908152602001604051809103902060030160006101000a81548160ff02191690831515021790555050565b8060069080519060200190610c9c929190611130565b5050565b60058054610cad90611810565b80601f0160208091040260200160405190810160405280929190818152602001828054610cd990611810565b8015610d265780601f10610cfb57610100808354040283529160200191610d26565b820191906000526020600020905b815481529060010190602001808311610d0957829003601f168201915b505050505081565b60026000815480929190610d4190611871565b91905055506040518060c0016040528060025481526020018581526020018481526020018381526020018281526020016000815250600760006002548152602001908152602001600020600082015181600001556020820151816001019080519060200190610db1929190611130565b506040820151816002019080519060200190610dce929190611130565b506060820151816003019080519060200190610deb929190611130565b506080820151816004019080519060200190610e08929190611130565b5060a082015181600501559050507f4ef8a94ac0a5bc18bb327ca4c6fc41a39510862b179a676672623d241a0d2e20600254858585856000604051610e5296959493929190611952565b60405180910390a150505050565b60036000815480929190610e7390611871565b919050555060015442604051602001610e8d9291906119f0565b6040516020818303038152906040528051906020012060001c600081905550565b60015481565b6007602052806000526040600020600091509050806000015490806001018054610edd90611810565b80601f0160208091040260200160405190810160405280929190818152602001828054610f0990611810565b8015610f565780601f10610f2b57610100808354040283529160200191610f56565b820191906000526020600020905b815481529060010190602001808311610f3957829003601f168201915b505050505090806002018054610f6b90611810565b80601f0160208091040260200160405190810160405280929190818152602001828054610f9790611810565b8015610fe45780601f10610fb957610100808354040283529160200191610fe4565b820191906000526020600020905b815481529060010190602001808311610fc757829003601f168201915b505050505090806003018054610ff990611810565b80601f016020809104026020016040519081016040528092919081815260200182805461102590611810565b80156110725780601f1061104757610100808354040283529160200191611072565b820191906000526020600020905b81548152906001019060200180831161105557829003601f168201915b50505050509080600401805461108790611810565b80601f01602080910402602001604051908101604052809291908181526020018280546110b390611810565b80156111005780601f106110d557610100808354040283529160200191611100565b820191906000526020600020905b8154815290600101906020018083116110e357829003601f168201915b5050505050908060050154905086565b8060059080519060200190611126929190611130565b5050565b60035481565b82805461113c90611810565b90600052602060002090601f01602090048101928261115e57600085556111a5565b82601f1061117757805160ff19168380011785556111a5565b828001600101855582156111a5579182015b828111156111a4578251825591602001919060010190611189565b5b5090506111b291906111b6565b5090565b5b808211156111cf5760008160009055506001016111b7565b5090565b6000604051905090565b600080fd5b600080fd5b600080fd5b600080fd5b6000601f19601f8301169050919050565b7f4e487b7100000000000000000000000000000000000000000000000000000000600052604160045260246000fd5b61123a826111f1565b810181811067ffffffffffffffff8211171561125957611258611202565b5b80604052505050565b600061126c6111d3565b90506112788282611231565b919050565b600067ffffffffffffffff82111561129857611297611202565b5b6112a1826111f1565b9050602081019050919050565b82818337600083830152505050565b60006112d06112cb8461127d565b611262565b9050828152602081018484840111156112ec576112eb6111ec565b5b6112f78482856112ae565b509392505050565b600082601f830112611314576113136111e7565b5b81356113248482602086016112bd565b91505092915050565b600060208284031215611343576113426111dd565b5b600082013567ffffffffffffffff811115611361576113606111e2565b5b61136d848285016112ff565b91505092915050565b600081519050919050565b600082825260208201905092915050565b60005b838110156113b0578082015181840152602081019050611395565b838111156113bf576000848401525b50505050565b60006113d082611376565b6113da8185611381565b93506113ea818560208601611392565b6113f3816111f1565b840191505092915050565b6000604082019050818103600083015261141881856113c5565b9050818103602083015261142c81846113c5565b90509392505050565b6000819050919050565b61144881611435565b82525050565b6000602082019050611463600083018461143f565b92915050565b61147281611435565b811461147d57600080fd5b50565b60008135905061148f81611469565b92915050565b600080604083850312156114ac576114ab6111dd565b5b60006114ba85828601611480565b925050602083013567ffffffffffffffff8111156114db576114da6111e2565b5b6114e7858286016112ff565b9150509250929050565b60008060006060848603121561150a576115096111dd565b5b600084013567ffffffffffffffff811115611528576115276111e2565b5b611534868287016112ff565b935050602084013567ffffffffffffffff811115611555576115546111e2565b5b611561868287016112ff565b925050604084013567ffffffffffffffff811115611582576115816111e2565b5b61158e868287016112ff565b9150509250925092565b600060208201905081810360008301526115b281846113c5565b905092915050565b60008115159050919050565b6115cf816115ba565b82525050565b600060e08201905081810360008301526115ef818a6113c5565b9050818103602083015261160381896113c5565b9050818103604083015261161781886113c5565b905061162660608301876115c6565b818103608083015261163881866113c5565b905061164760a08301856115c6565b61165460c08301846115c6565b98975050505050505050565b6000806000806080858703121561167a576116796111dd565b5b600085013567ffffffffffffffff811115611698576116976111e2565b5b6116a4878288016112ff565b945050602085013567ffffffffffffffff8111156116c5576116c46111e2565b5b6116d1878288016112ff565b935050604085013567ffffffffffffffff8111156116f2576116f16111e2565b5b6116fe878288016112ff565b925050606085013567ffffffffffffffff81111561171f5761171e6111e2565b5b61172b878288016112ff565b91505092959194509250565b60006020828403121561174d5761174c6111dd565b5b600061175b84828501611480565b91505092915050565b600060c082019050611779600083018961143f565b818103602083015261178b81886113c5565b9050818103604083015261179f81876113c5565b905081810360608301526117b381866113c5565b905081810360808301526117c781856113c5565b90506117d660a083018461143f565b979650505050505050565b7f4e487b7100000000000000000000000000000000000000000000000000000000600052602260045260246000fd5b6000600282049050600182168061182857607f821691505b6020821081141561183c5761183b6117e1565b5b50919050565b7f4e487b7100000000000000000000000000000000000000000000000000000000600052601160045260246000fd5b600061187c82611435565b91507fffffffffffffffffffffffffffffffffffffffffffffffffffffffffffffffff8214156118af576118ae611842565b5b600182019050919050565b600081905092915050565b60006118d082611376565b6118da81856118ba565b93506118ea818560208601611392565b80840191505092915050565b600061190282846118c5565b915081905092915050565b6000819050919050565b6000819050919050565b600061193c6119376119328461190d565b611917565b611435565b9050919050565b61194c81611921565b82525050565b600060c082019050611967600083018961143f565b818103602083015261197981886113c5565b9050818103604083015261198d81876113c5565b905081810360608301526119a181866113c5565b905081810360808301526119b581856113c5565b90506119c460a0830184611943565b979650505050505050565b6000819050919050565b6119ea6119e582611435565b6119cf565b82525050565b60006119fc82856119d9565b602082019150611a0c82846119d9565b602082019150819050939250505056fea2646970667358221220dd35037e56d0ae0c49877c351b9ad7a85ad77e23a06101807ed7f82563bacd6264736f6c634300080c0033",
  "immutableReferences": {},
  "source": "// SPDX-License-Identifier: MIT\npragma solidity >=0.4.22 <0.9.0;\ncontract Evote{\n    uint public userKey = 0;\n    uint public salt = 123; // \n    // uint public key = 0;\n    uint public candidatesCount=0;\n    uint public keyCount=0;\n    uint public userCount=0;\n    string public changeState=\"\";\n    string public info;\n mapping(uint => candidates) public candidatesList;\n mapping(string => email) public emailList;\n mapping(string => aadhar) public aadharList;\n mapping(string => user) public usersList;\n\n    constructor() {\n        info = \"\";\n    }\n\n struct user{\n      string username;\n      string email;\n      string password;\n      bool isVoted;\n      string aadhar;\n      bool isAdmin;\n      bool isKey;\n      \n  }\n struct email{\n      string accountAddress;\n      string aadhar;\n  }\n struct aadhar{\n      string accountAddress;\n      string email;\n  }\n \n  struct candidates{\n      uint id;\n      string name;\n      string age;\n      string party;\n      string qualification;\n      uint voteCount;\n  }\n  // events\n\n   event userCreated(\n      string username,\n      string email,\n      string password,\n      bool isVoted,\n      string aadhar,\n      bool isAdmin,\n      bool isKey\n      \n    );\n\n   event emailCreated(\n      string accountAddress,\n      string aadhar\n    );\n   event aadharCreated(\n      string accountAddress,\n      string email\n    );\n   event candidatesCreated(\n      uint id,\n      string name,\n      string age,\n      string party,\n      string qualification,\n      uint voteCount\n    );\n\n   \n    function createUser(string memory _username,string memory _email,string memory _password,string memory _aadhar ) public {\n      \n        userCount++;\n\n        usersList[_email] = user(_username,_email,_password,false,_aadhar,true,false);\n      \n        emit userCreated(_username,_email,_password,false,_aadhar,true,false);\n    }\n\n  function createCandidate(string memory _name,string memory _age,string memory _party,string memory _qualification) public {\n      \n        candidatesCount++;\n       \n        candidatesList[candidatesCount] = candidates(candidatesCount,_name,_age,_party,_qualification,0);\n      \n        emit candidatesCreated(candidatesCount,_name,_age,_party,_qualification,0);\n    }\n  \n  function createNotice(string memory _info) public{\n        info = _info;\n  }\n\n  // function getNotice() public view return (string memory){\n  //   return info;\n  // }\n\n  function addVote(uint id,string memory _email) public {\n        \n        candidatesList[id].voteCount++;\n        usersList[_email].isVoted=true;\n      \n    }\n  function changeStates(string memory _name) public {\n\n        changeState=_name;\n    }\n\n    function appendIsVote(string memory _email) public {\n\n         usersList[_email].isVoted=true;\n    }\n\n  function createAdharEmail(string memory _aadharNum, string memory _accountAddress,string memory _email) public {\n        aadharList[_aadharNum] = aadhar(_accountAddress,_email);\n\n        usersList[_email].aadhar=_aadharNum;\n\n        emit aadharCreated(_accountAddress, _email);\n  }\n  function generateKey() public {\n\n        keyCount++;\n        userKey = uint(keccak256(abi.encodePacked(salt, block.timestamp))); \n        \n}\n}\n\n\n",
  "sourcePath": "/Users/flower/Desktop/dapp/vote/src/contracts/Evote.sol",
  "compiler": {
    "name": "solc",
    "version": "0.8.12+commit.f00d7308.Emscripten.clang"
  },
  "schemaVersion": "3.4.13",
  "updatedAt": "2023-04-11T08:23:09.020Z",
  "devdoc": {
    "kind": "dev",
    "methods": {},
    "version": 1
  },
  "userdoc": {
    "kind": "user",
    "methods": {},
    "version": 1
  }
}